:020000040800F2
:10000000100A0020415500088D5300088F53000846
:100010009153000893530008955300080000000016
:1000200000000000000000000000000097530008DE
:1000300099530008000000009B5300089D530008DE
:1000400091550008A55300089555000899550008DA
:100050009D550008A1550008A5550008A9550008A0
:10006000AD550008B1550008B5550008B955000850
:10007000BD550008C1550008C5550008C955000800
:10008000CD550008D1550008D5550008D9550008B0
:10009000AD530008DD550008B7530008E1550008CE
:1000A000E5550008E9550008ED550008F155000830
:1000B000F5550008F9550008FD55000801560008DF
:1000C00005560008095600080D560008115600088C
:1000D00015560008195600081D560008215600083C
:1000E000C153000825560008295600082D5600085F
:1000F0003156000835560008395600083D560008AC
:100100004156000845560008495600084D5600085B
:10011000CD5300085156000855560008595600089E
:100120005D560008615600086556000869560008CB
:100130006D5600087156000875560008795600087B
:100140007D5600088156000885560008895600082B
:100150008D560008915600089556000899560008DB
:100160009D560008A1560008A5560008A95600088B
:10017000AD560008B1560008B55600080000000052
:10018000B9560008BD56000840F0200070472DE920
:10019000F14FB0B0924604910DF142013A9A2B9181
:1001A00099464A7000200AE01AF8011B0498309A18
:1001B00090470028049000F043860D98401C0D9055
:1001C0009AF8000050B12528EED1002200210792B4
:1001D000089109920A910B920C9104E00D9800F09D
:1001E00031BE41F001011AF8010F2028F9D023286F
:1001F0000CD02B2804D02D2805D0302809D00BE0B6
:1002000041F00201EFE741F00401ECE741F00801A1
:10021000E9E741F01001E6E72A280FD1D9F80020DC
:1002200052F8040BC9F8002000280F9003D5404273
:100230000F9041F004010AF1010A14E00F92DFF877
:100240000C0C0AE00F9C844205DA04EB840302EBF9
:100250004302303A0F920AF1010A9AF80020A2F103
:1002600030030A2BEED39AF800202E2A03D04FF049
:10027000FF300E9029E01AF8010F2A2809D1D9F889
:10028000002052F8040BC9F800200E900AF1010A70
:100290001BE02D280CBF0AF1010A002000220E925B
:1002A000DFF8A85B0BE040B90E9BAB4205DA03EB2D
:1002B000830402EB4402303A0E920AF1010A9AF8E2
:1002C0000020A2F130030A2BEDD3ADF840100FF659
:1002D00080309AF8001000F0FBFE08B11AF8010B0C
:1002E0008DF842009DF84200682805D19AF8001068
:1002F00068290CD1622006E06C2804BF9AF800102F
:100300006C2904D171208DF842000AF1010A12AA69
:1003100006921AF801BBBBF125002CD01C3800F066
:100320009781001F022840F29381133800F0BA84AD
:10033000093800F08D81801E00F04F85401E00F0CE
:10034000FC84401E022840F28381001F00F0F584E7
:10035000401F00F0F280401E00F0A484401E00F018
:10036000DA80C01E0ED0801E00F09C84C01E00F0FB
:10037000998400F03DBD0122252107928DF8481097
:1003800000F042BDD9F8000050F8044BC9F8000055
:10039000002C059440F0AB802B994878002800F0A1
:1003A000A1804FF0FF340FF6B02000F0A9FE241A10
:1003B00040F0468500F028BD01236A4602A9304678
:1003C00000F00CFE002840F03B85641EF4D130960E
:1003D000079C12AE74B1309F16F8011B0498B84701
:1003E0000028049000F02C850D98401C641E0D9090
:1003F000F2D130970A9C3021002C8DF800100CDDD2
:10040000309E01236A4602A9304600F0E7FD00282D
:1004100040F01685641EF4D13096059E089C74B198
:10042000309F16F8011B0498B8470028049000F08C
:1004300007850D98401C641E0D90F2D130970B9CDF
:100440003021002C8DF800100CDD309E01236A460F
:1004500002A9304600F0C2FD002840F0F184641E7D
:10046000F4D1309605980899099C461874B1309FCC
:1004700016F8011B0498B8470028049000F0E084A7
:100480000D98401C641E0D90F2D130970C9C3021C9
:10049000002C8DF800100CDD309E01236A4602A965
:1004A000304600F09BFD002840F0CA84641EF4D161
:1004B00030969DF8400041077FF582AE2020002D48
:1004C0008DF800007FF77CAE309C01236A4602A9BC
:1004D000204600F083FD002840F0B2846D1EF4D168
:1004E00030946DE60FF65430059000F08DBC0E9DF3
:1004F000002D04D5204600F023FE044608E02A46DD
:100500000021204600F038FE002814BF041B2C46B2
:10051000089400F079BCD9F8001051F8040BC9F820
:10052000001020F00002002121F0FF33CDE902236A
:1005300012AC0594782100F04CBC2B99487820B17E
:100540004FF0FF340FF6C4202FE79DF842006228D9
:1005500060D0682817D06A283FD06C2806D0712850
:1005600047D074282CD07A281DD062E0D9F800102A
:1005700051F8040BC9F80010002866D14FF0FF3481
:100580000FF6A02011E7D9F8001051F8040BC9F8B4
:10059000001020B94FF0FF340FF6882005E70D99C1
:1005A000018000F031BCD9F8001051F8040BC9F8F3
:1005B0000010002849D14FF0FF340FF66820F4E610
:1005C000D9F8001051F8040BC9F8001000283CD1EC
:1005D0004FF0FF340FF64C20E7E6D9F8001051F841
:1005E000040BC9F8001080B94FF0FF340FF6342027
:1005F000DBE6D9F8001051F8040BC9F8001020B957
:100600004FF0FF340FF61C20CFE60D9AD317C0E948
:100610000023F9E3D9F8001051F8040BC9F80010D1
:1006200020B94FF0FF340FF6FC10BEE60D990170B3
:10063000EAE3D9F8001051F8040BC9F8001020B90A
:100640004FF0FF340FF6DC10AFE60D990160DBE3ED
:100650009DF842004C2807BFD9F80010CA1DD9F8F0
:100660000000C21D22F00702C9F80020D2E90001F3
:100670000832C9F80020CDE90201C80F02D007985E
:100680002D210AE0BDF84010880702D507982B21DC
:1006900003E0C80705D50798202112AA1154401C71
:1006A000079012A807994BF0200300EB010CDDE93D
:1006B0000201CDE92C01612BCDF814C021AC0BD087
:1006C0000E98002848BF062105D404BF4BF0200037
:1006D000672801D101210E91DDE902677B0043EA21
:1006E000D6735A15DB174FF0FF30834208BF8242A2
:1006F00010D13F0347EA16573603002F08BF002EDC
:1007000008D0ABF1610503211A2D089118D30FF61B
:10071000341110E0DDE902014A00521512F1010F17
:1007200011D108030FD1ABF1610503211A2D0891F6
:100730001FD30FF618110322604600F049FD63E352
:100740000FF6FC01F7E7DDE902016A4600F094FDCF
:10075000CDE902014BF02000612811D1059830222B
:100760000270811C0591BBF1610F0CBF78215821EB
:1007700002E00FF6D401DEE741700798801C079075
:10078000DDE9020120F0000231F0004308BF002A39
:1007900002D10026002542E14BF02008B8F1610F9C
:1007A00040F093800E98002847BF21210191401C02
:1007B0000190019EDDE92C01761C00220023DDE979
:1007C000024500F091FD38BF85F0004500988DF896
:1007D0008420001F002E00900DF1850732DD204699
:1007E00029460022002300F099FD2BD21C2200F0A4
:1007F000AFFD04460D4600F049FEF61F002E804670
:1008000009DD00F05FFE02460B462046294600F057
:1008100021FF04460D46F81D0721B8F1000F0CDD3D
:10082000491E5EBF08F00F0200F8012D4FEA28189C
:10083000F3D502E0002200F8012D491EFAD5C71DAC
:10084000002ECCDC0DF185003F1A01980DF18504D6
:100850003E468742C8BF0646002E2FD4BE4206DA67
:100860000DF18500815D0829A8BF0F2000DA002066
:10087000324621A98D1800E0761E15F80139521E66
:100880008342F9D00F2804D10DF18501885C401C0A
:100890008854002A04D50098001D21AC761C0090D5
:1008A000701E0BD421180B783033DAB23A2AA4BF69
:1008B0005B443A3B401E01F80139F4D50E990029FA
:1008C00040F1AC80701E0E90A8E00099DFF8FC2685
:1008D00047F29750414391FBF2F20092DDE92C453B
:1008E000C2F10702002A25F0004504DD2046294612
:1008F00000F049FB0BE052420020DFF8D41600F074
:1009000042FB02460B462046294600F015FF0446EE
:100910000D46B8F1660F06BF009E0A3606260E98F1
:100920003618142EC8BF142630208DF884000DF11F
:100930008507002E34DD2046294601F021F80146C6
:100940000A4607F1080C04200A27B2FBF7FE0EEB5B
:100950008E03A2EB430230320CF8012C0A22BEFBBC
:10096000F2F202EB8203AEEB43033033401E0CF88D
:10097000023DE9D1083E002E0CF10807D9DD0846FA
:1009800001F010F802460B462046294600F062FEB0
:100990000022DFF8403601F013F804460D46CAE79E
:1009A0000DF185003F1A0DF1850404E00098401E0A
:1009B0007F1E0090641C20783028F7D0B8F1660FB5
:1009C00002D1009E761C04E0B8F1650F0CBF012631
:1009D00000260E983618B742B8BF7E1E002E1DD4D2
:1009E000BE4204DAA05D3428C8BF392000DC3020C4
:1009F0003246611E8D1800E0761E15F80179521EF0
:100A00008742F9D0392802D1A05C401CA054002AAA
:100A100004D50098401C0C46761C0090009D01F007
:100A2000A5F8406A0778DDF8388030B2002802DC8B
:100A300001260FF21C644BF02000662808BF6D1CD5
:100A400016D0672845D128B210F1040F47DB404586
:100A500045DA9DF840106D1C080703D430B24045BC
:100A6000D8BF804628B2B8EB000848BF4FF0000856
:100A70000FFA85FBBBF1000F00F3B3800898411C0F
:100A80000891302205990A54B8F1000F03DC9DF853
:100A90004010080704D50898411C089105990F5487
:100AA00018EB0B0FB8BFC8F100052DB268424544E2
:100AB00032B20B909542B8BF2E46059B089836B2CD
:100AC000099632462146184400F082FBAD1B0C9576
:100AD000D1E0BBF1610F17D14FF0700B19E030B2CC
:100AE000404504DA9DF840100A0758BF8046B8F127
:100AF000010848BF4FF00008BBF1670F14BF4FF06B
:100B0000450B4FF0650B04E0BBF1410F08BF4FF000
:100B1000500B0898411C0891B8F1000F059914F882
:100B2000012B0A5403DC9DF8401008071AD50898D9
:100B3000411C0891B8F1000F05990F5412DD761E83
:100B400030B28045B8BF46460598089B32B2214670
:100B5000184400F03DFB089836B230180890A8EB16
:100B600006000B9005980899014428B2002881F8E6
:100B700000B003D42B204870891C04E02D224A7059
:100B80000546891C6D4200202CAA0AE02B460A2546
:100B900093FBF5F505EB8504A3EB440302F8013B59
:100BA000401C2DB2002DF1DC012806DC4BF02002A8
:100BB000652A04BF302201F8012B00282CAB08D194
:100BC000302001F8010B06E0401E1A5C303201F8BB
:100BD000012B0028F8DC059A08981044091A09919D
:100BE00049E031B228B281421CDA059B089832B242
:100BF0002146184400F0ECFA089936B271180891B1
:100C0000ABEB0600B8F1000F0B9003DC9DF8400041
:100C1000020704D5059847540999491C0991CDF854
:100C2000308028E0059B08982AB22146184400F03D
:100C3000CFFA0898761B5844B8F1000F089003DCEF
:100C40009DF840100A0703D5411C089105990F54DF
:100C500030B28045B8BF46460598089B32B204EBD7
:100C60000B01184400F0B4FA089836B23018089016
:100C7000A8EB06000B909DF8400000F0140010282F
:100C800040F0C280079A08980B99821809988A1830
:100C900082180C980F998018884280F2B580081A43
:100CA0000A90B1E09DF84200622808D068280ED072
:100CB0006A2814D06C281FD0712810D01CE0D9F8F5
:100CC000001051F8040BC9F80010C0B21AE0D9F8AE
:100CD000001051F8040BC9F8001080B212E0D9F8E6
:100CE0000000C21D22F00702C9F80020D2E900016D
:100CF0000832C9F8002006E0D9F8001051F8040BBA
:100D0000C9F800100021CDE902019DF8400002075A
:100D10005AD5DDE90201002908BF002854D04BF064
:100D20002002782A50D1079912A830234354491C35
:100D30004A1C079200F801B046E09DF84200622884
:100D400008D068280ED06A2814D06C281FD07128CB
:100D500010D01CE0D9F8001051F8040BC9F80010AD
:100D600040B21AE0D9F8001051F8040BC9F800108D
:100D700000B212E0D9F80000C21D22F00702C9F843
:100D80000020D2E900010832C9F8002006E0D9F8B5
:100D9000001051F8040BC9F80010C117CDE9020189
:100DA000002902D507982D220AE0BDF840008107EE
:100DB00002D507982B2203E0C00705D5079820220B
:100DC00012A90A54401C079012A8079901440591E2
:100DD000594602A800F04EF816E001200790D9F815
:100DE000001051F8040BC9F800108DF848000BE012
:100DF00001222521BBF1000F07928DF8481003D086
:100E0000022007908DF849B00F9D07980A992D1A76
:100E100008986D1A0B992D1A09986D1A0C992D1AAC
:100E20009DF840006D1A41073FF5D2AA2020002D01
:100E30008DF800007FF7CCAA309E2C46FFF7BCBA95
:100E40004FF0FF3031B0BDE8F08F0000CBCCCC0CC0
:100E5000686A6C747A4C00007072696E74665F73B5
:100E60003A2062616420257320617267756D656E3A
:100E7000740000002DE9FE4C06468B463769584643
:100E80006F2808BF082205D0FFF77EF9782814BF25
:100E90000A221022D6E900013C2504468A46BBF10D
:100EA000640F18BFBBF1690F04D1002902D5644259
:100EB0006AEB4A0ABAF1000F08BF002C0CD1306B64
:100EC00050B9082A3BD196F83810080737D5302199
:100ED0003B2587F83B1032E08DF800B09346204662
:100EE00051465A46002300F045FE3032D0B26D1E06
:100EF0003A2801950DDA7A55204651465A46002384
:100F000000F038FE04465FEA010A08BF002C05D154
:100F100008E09DF800001218513AECE7F1687819E2
:100F20008142DCD3BBF1080F09D196F838000107E4
:100F300005D5785D302802D06D1E30207855C5F17A
:100F40003C02306BB26179198242F16007DA318F6D
:100F5000821A4FF6EF7001403262318710E00028AC
:100F60000ED596F8380000F01400102808D1736BE5
:100F70007069316A1B1A5B1A9B1A002BC8BF336257
:100F800003B0BDE8F08C2DE9D04306460F46144669
:100F90004FF00008DFF8409012E0E00707D5424626
:100FA0004B463046394600F00BFD06460F4640469C
:100FB000494642464B4600F003FD64108046894690
:100FC000002CEAD130463946BDE8D083A086010026
:100FD0000000F03F84D7974100002440F8B5054653
:100FE0000E4617461C4600205CB117F8011BB0687E
:100FF000A847B06030B1F06A401CF0620020641E67
:10100000F3D1F2BD4FF0FF30F2BD00007072696E97
:1010100074665F733A20256E20646973616C6C6F2F
:10102000776564007072696E74663A20626164204C
:10103000256E20617267756D656E7400000000009A
:101040006E616E004E414E00696E6600494E46006C
:101050003000F0B40246106895681318506803EB2E
:101060005004C00748BF4D44A3422DD013F8016B74
:1010700016F0030004BF13F8010BC01C31090F293F
:1010800007D113F8011B0F3103E013F8017B05F8BA
:10109000017B401EF9D10029E6D013F8010BC6F3FD
:1010A0008107032F08BF13F8017B00EB07204042A4
:1010B00028440026B71E8F421EBF10F8017B05F89A
:1010C000017B761CF6D1CFE7F0BC02F10C00704733
:1010D000C9B202788A421AB11CBF10F8012FF9E791
:1010E00018BF002070478268521C8260426832B18B
:1010F00003685A1C026019704168491E41607047BC
:1011000080B500B906A005490B681BB12222002159
:10111000984701E000F046FE222002BD04060020B0
:10112000636F6E73747261696E742068616E646C53
:1011300065723A20626164206D6573736167650052
:1011400000F10103810704D010F8011B820781B16F
:10115000FAD10268A2F10131914311F0803104BF4C
:1011600050F8042FF6E709BAB1FA81F100EBD1008B
:10117000401CC01A70472E00C9B2830706D0521E09
:1011800022D310F8013B9942F7D11FE0083A13D35C
:1011900002F1040241EA012141EA014150F8043B15
:1011A000121F21BF4B40A3F1013C2CEA030C1CF0A1
:1011B000803FF3D0C9B2001F083210F8013B521E25
:1011C00028BF91EA030FF8D818BF0120401E7047CE
:1011D00062B38B0708D0521E11F8013B00F8013BA7
:1011E00000F024808B07F6D1830740F0208000BFF9
:1011F000103A07D330B4B1E83810103AA0E83810EC
:10120000F9D230BC530724BFB1E80810A0E8081099
:1012100044BF51F8043B40F8043BD20724BF31F8E7
:10122000022B20F8022B44BF0B7803707047121F6B
:1012300017D35B0009D151F8043B20F8023B1B0C8B
:10124000121F20F8023BF6D20BE051F8043B00F8E5
:10125000013B1B0A20F8023B1B0C121F00F8013B4C
:10126000F3D238BF121D521E24BF11F8013B00F803
:10127000013BF8D87047000010B5144600F002F8A2
:10128000226010BDC1F30A5343B14A0012F5001F9A
:1012900028D2A3F2FE32A1EB0251704750EA410C72
:1012A00020D001F0004C31EA0C01B1FA81F204BF08
:1012B000B0FA80F3D2180B3AB2F120032CBF00FA37
:1012C00003F1914041EA0C013EBFC2F1200C20FA2B
:1012D0000CF319439040524240F2FD33D21A01EB15
:1012E000035170470022704741EA030C50EA4C0C4E
:1012F00052EA0C0C4FF4001C09D307D01CEB410F31
:101300009CBF1CEB430F8B4208BF824270471CEB13
:10131000430FFBD8994208BF9042704741EA030C43
:1013200050EA4C0C52EA0C0C4FF4001C09D307D0C5
:101330001CEB410F9CBF1CEB430F994208BF90422E
:1013400070471CEB410FFBD88B4208BF82427047AD
:10135000124254D440F2FF7C1CEA11530FD0634573
:1013600031D09B1863453CBF01EB0251704701F03F
:10137000004141EA0C510020AFF30080704750EA71
:10138000410320D001F0004C91EA0C011CD0B1FACD
:1013900081F30B3B9A420DD9D21A994051EA0C01C4
:1013A000C3F1200C20FA0CFC61449840531C40F21D
:1013B000FF7CD7E7914041EA0C01C2F1200C20FAF2
:1013C0000CF3194390407047B0FA80F31533202B8B
:1013D000E0D3202AEED3203A203B9A4209D9D21AF0
:1013E00000FA03F141EA0C010020531C40F2FF7C9B
:1013F000B8E700FA02F141EA0C01002070475242BE
:1014000040F2FF7C1CEA11530DD06345DBD0B2EBF8
:10141000030C3CBFA1EB025170470CF1010221EA21
:10142000035141F4801150EA410CCCD001F0004C42
:10143000352A27DC30B481EA0C01B2F1200309DA45
:10144000C2F12003044601FA03F5D0402843D140FD
:101450009C400CE0C3F12002450020FA03F418BFC1
:1014600044F0010421FA03F091400C43002174F18F
:10147000004550F1000051EB0C01244230BC7FF4D8
:101480007BAF70476146002076E70000C1F30A5346
:1014900040F21E42D31A0CDDCA0283F3070342EA6C
:1014A000505242F00042DA4002EBE17282EAE1700F
:1014B00070476FEAE17203F2E13008B182F0004058
:1014C0007047000010F0004160B148BF4042B0FAE0
:1014D00080F29040D21CC2F5846241EA025202EBD3
:1014E000D021400570470000841A71EB030604D236
:1014F0006E40001BB141121973414FF4001C1CEBEC
:10150000410F34BF7CEB430683E00C0DA4EB135674
:10151000362E00F37C80012E45EAC32341DC43EAEA
:10152000525312BFD20292025B08240545EAC12140
:1015300041EA5051D2EBC020994125D407D1B0FAED
:1015400080F610FA06F162D00020203608E0B1FAE9
:1015500081F6B140C6F1200220FA02F21143B040F8
:101560004FEAF474B4EB465434F001064FEA7404C5
:101570000AD8D6F50016760D04F00044F04061FA62
:1015800006F25040F1404840C00A40EA415021F084
:10159000004128BF5FEA500550F1000044EBD12123
:1015A00035E0DB0A45EAC121C90AB6F120050EDDA6
:1015B00042EA0242120CC5F1200603FA06F6EB409D
:1015C00042EA06056D42984161F100010DE062FAC0
:1015D00006F5F240554063FA06FC82EA0C02F3403D
:1015E0005A406D42904161EB030111F4801F05D117
:1015F000641E620502D06D004041494121F4801112
:10160000430875F1004350F1000041EB045170BCF8
:1016100070471CEB410F15D223F0004352EA4306FA
:101620000BD04FEA4C0CBCEB410F04D80C0D661EDE
:10163000342EB7DDEBE7801A994150EA410608BF26
:101640000021E4E708BF1CEB430F28BF6FF0000147
:10165000DDE7000070B491EA030F4FF000457FF51D
:1016600043AF6B40841A71EB030603D2001BB141F8
:10167000121973414FF4001C1CEB410F34BF7CEB7B
:10168000430442E00C0DA4EB1356352E4FDC45EA23
:10169000C323DB0A45EAC121C912B6F120050DDDDD
:1016A00063FA05F6EB4086EA0305124218BF45F0DF
:1016B0000105C01851F100010CD213E062FA06F5E1
:1016C000F2405540F3415A40B340F3405A4080182D
:1016D000594107D349085FEA30005FEA350528BF62
:1016E00045F0010501F58011420875F1004250F105
:1016F000000041EB04514E0016F5001F70BC38BFCE
:1017000070470020090D090570471CEB410F10D2EE
:1017100052EA43060BD0BCEB410F05D80C0DAB438E
:10172000661E342EB6DD02E0AB438018594170BC12
:10173000704770BC70470000F0B540F2FF7581EA59
:10174000030C0CF0004C15EA11541DBF15EA135799
:10175000AC42AF42E5E0BC41C1F31301C3F3130354
:10176000801A994143F4801304D2641E0018494141
:1017700080185941C90241EA5051B1FBF3F603FB0D
:101780001611A2FB0675D7EBC020A94102D2761E26
:1017900080185941C90241EA5051B1FBF3FE03FBE5
:1017A0001E11A2FB0E75D7EBC020A94103D2AEF1EA
:1017B000010E80185941890241EA9051760546EAA6
:1017C0008E2EB1FBF3F603FB1611A2FB0675D7EBC9
:1017D0008020A94102D2761E80185941C90241EAEF
:1017E00050514EEA060EB1FBF3F603FB1611A2FBB5
:1017F0000675D7EBC020A94102D2761E8018594148
:10180000C90241EA5051B1FBF3F703FB1711A2FBE8
:101810000735D3EBC020A94167F100070CBF004298
:1018200047F0010766F3D5274FEA1E31B80814F5D3
:10183000806412DDBD0775F1004250EB0E5051EB94
:10184000045111F5801F5CBF41EA0C01F0BD4CF062
:101850007F6141F0E0410020F0BDBD076D0840EA26
:101860000E5041F48011D4F10104B4F120060ADADB
:10187000C4F120060200E04001FA06F3E1401843FB
:10188000B24015430EE0342C13DCC6F1200445EAC7
:1018900040056D0820FA06F2154321FA06F0A14032
:1018A0000D43002175F1004250F1000051EB0C0195
:1018B000F0BD00205FEA0C01F0BDCFB992185B418A
:1018C000B3FA83F704BFB2FA82F6BF190B3FB7F140
:1018D00020062FBF02FA06F3BB40C7F1200622FA0A
:1018E00006F638BF3343BA401CB1E419641E33E72F
:1018F0007F4231F00041B1FA81F404BFB0FA80F6C2
:10190000A4190B3CB4F120062FBF00FA06F1A14048
:10191000C4F1200620FA06F638BF3143A0403C1B34
:101920001AE7AC421ABF05EA1357AF4212E050EA79
:1019300041061CBF52EA4306BFE750EA4107304662
:1019400061461CBF41EA0551F0BD52EA430C08BF95
:10195000C143F0BD00204FF4001616EB410F98BFB5
:1019600016EB430F08BF16EB410F24BFC14305E040
:1019700016EB430F0CBF61464CEA0551F0BD000069
:10198000400D40F21E4C40EAC120BCEB115C40F01F
:10199000004003D48CF30701C84070476FEAE17040
:1019A0007047000050B1B0FA80F18840C91CC1F501
:1019B0008461090501EBD02140057047014670475D
:1019C00030B540F2FF7C1CEA11541DBF1CEA1355D0
:1019D000644565453FE0641981EA030C6FF35F538A
:1019E0000CF0004C43F48013C90241F0004141EA7D
:1019F000505EC5021100A5FB020200284FF0000056
:101A0000EEFB01204FF00001E3FB052118BF42F07F
:101A10000102401800214941E3FB0E01A4F5806456
:101A20000D0302D292184041494154F1010470DD86
:101A3000450872F1004250F1000051EB0451A1F54C
:101A4000801102D441EA0C0130BD40F2FF7E4CEA25
:101A50000E51002030BD0CEA1355644518BF654592
:101A600081EA030C0CF0004C41D050EA410E1CBF3F
:101A700052EA430E02E06146002030BD24422C446D
:101A80001BD15FEA050EF6D0090302BF0146002014
:101A9000AEF1140EB1FA81F5AEEB050401FA05FEC4
:101AA0000C35C5F1200100FA05F5C8404EEA000EDC
:101AB0006FF35F5343F480139CE733F00043B3FAB2
:101AC00083F504BFB2FA82FE75440B3D641BB5F189
:101AD000200E2FBF02FA0EF3AB40C5F1200E22FA02
:101AE0000EFE38BF43EA0E03AA40641C7CE750EAAE
:101AF000410E14BF52EA430E6FF000014FF400157F
:101B000015EB430F8EBF194615EB410F9DE7B4D877
:101B100030BDD4F10104B4F120050FDAC4F1200581
:101B2000520828BF42F0010210FA05FE01FA05F53D
:101B30007244E2BFE0402843E1400FE0352C9ADCDC
:101B4000C5F1200452EA400220FA05F218BF42F023
:101B5000010231FA05F0A1400A43002172F100426E
:101B600050F1000051EB0C0130BD000000487047FF
:101B700020010020BBBBE1B1B2F5803F80F07E8048
:101B8000022A1ED98C46B1FBF2F102FB11C31B04E1
:101B900043EA1043B3FBF2FC02FB1C3380B240EA81
:101BA0000343B3FBF2F002FB103240EA0C40002387
:101BB0007047022A05D98446B0FBF2F002FB10C23E
:101BC00070474AB105D100F0010249085FEA3000D0
:101BD000704700220023704700F0E8B80B000200B5
:101BE000002100207047904271EB030CF6D3B3F54F
:101BF000803F2FD2F0B5B3FA83F7B1FA81F4A7F1A1
:101C00000F0E3D1B5340CEF1200602FA0EF2F341B7
:101C10005340B5F10F0746D80F3C2C444140C4F166
:101C20002006A040F1414140B1FBF3F603FB161141
:101C3000A2FB0645001BA94102D2761E801859411D
:101C400080EA010221FA0EF362FA0EF200215A40F4
:101C50003046F0BD30B4B1FBF3FC03FB1C11A2FB1A
:101C60000C45001BA94103D2ACF1010C801859416D
:101C700030BC02460B46604600217047B2F1807FBF
:101C800065D3F0B5B2FA82F7B1FA81F4C7F10F0665
:101C90003D1B22FA06F307F1110EF24120355A409E
:101CA000B5F10F07B8D94140C4F12006A040F14179
:101CB0004140B1FBF3FC03FB1C11A2FB0C45001BD4
:101CC000A94103D2BCF1010C801859410F2F12D346
:101CD0000F3FC90341EA5041B1FBF3F603FB161174
:101CE000A2FB0645D4EBC030A94102D2761E801873
:101CF000594146EACC3C07B34140C7F12006B84001
:101D0000F1414140B1FBF3F603FB1611A2FB06457E
:101D1000001BA94102D2761E8018594180EA0102B7
:101D200021FA0EF3C7F1200462FA0EF20CFA07F062
:101D30005A402CFA04F13043F0BD80EA010221FA46
:101D40000EF3002162FA0EF260465A40F0BD8C4656
:101D5000B1FBF2F102FB11C31B0243EA1063B3FBB8
:101D6000F2FC02FB1C331B024CEA002043EA106326
:101D7000B3FBF2FC02FB1C331B024CEA002043EADB
:101D80001063B3FBF2FC02FB1C331B024CEA002085
:101D900043EA1063B3FBF2FC02FB1C324CEA002066
:101DA00000237047012000F003B8000070470000D6
:101DB00080B5AFF30080024A11001820ABBEFBE7EC
:101DC0002600020010B50400002C01D1012035E0EE
:101DD000A0690028FFD1E06F002805D1002084F819
:101DE0007800200000F059FF2420E0672068016897
:101DF0004908490020680160606A002802D020007C
:101E000000F0FEFB200000F041FA012801D1012082
:101E100014E02068416831F49041206841602068F6
:101E2000816831F02A01206881602068016851F0E2
:101E3000010120680160200000F04FFC10BD2DE979
:101E4000FC4781460D0016001F00D9F87C002028B1
:101E50005FD1002D03D0300080B2002801D10120D5
:101E600058E00020C9F884002120C9F87C0000F067
:101E700069FF8046A9F85060A9F85260D9F80800B7
:101E8000B0F5805F06D1D9F81000002802D10024F7
:101E9000AA4602E02C005FF0000AB9F852000028C0
:101EA00024D00097434600228021484600F07EFC63
:101EB000002804D02020C9F87C0003202AE0002C50
:101EC00009D1BAF80010C905C90DD9F8000001857B
:101ED0001AF1020A04E02178D9F800000185641C97
:101EE000B9F85200401EA9F85200D6E700974346C1
:101EF00000224021484600F059FC002804D0202050
:101F0000C9F87C00032005E02020C9F87C000020EF
:101F100000E00220BDE8F68770B505000C00160051
:101F2000D5F88000202824D1002C03D0300080B2C6
:101F3000002801D101201DE0002028662968DFF873
:101F4000480381420ED02868406800020AD52868FC
:101F500050E8000F50F0806001002A6842E800104D
:101F60000028F4D1320092B22100280000F06AFC6F
:101F700000E0022070BD2DE9F04705002868C66921
:101F8000286807682868D0F8088040F60F043440B5
:101F9000002C0AD1B00608D5B80606D5A86E0028D0
:101FA00002D02800A96E88476CE1002C00F09D80CB
:101FB0005FEAC87004D4DFF84006074200F095805D
:101FC0003000C0070AD5F80508D50121286801624C
:101FD000D5F8840050F00100C5F88400B0070BD597
:101FE0004046C00708D5022029680862D5F8840059
:101FF00050F00400C5F8840070070BD54046C007B8
:1020000008D5042128680162D5F8840050F0020048
:10201000C5F8840030070DD5B80602D44046C00785
:1020200008D5082029680862D5F8840050F0080017
:10203000C5F8840030050BD5780109D54FF4006050
:1020400029680862D5F8840050F02000C5F88400A3
:10205000D5F88400002847D0B00607D5B80605D5C6
:10206000A86E002802D02800A96E8847D5F8840001
:10207000824628688068400602D41AF0280F2DD0C6
:10208000280000F057FC28688068400622D52868A0
:10209000083050E8000F30F040000100286810F1CF
:1020A000080242E800100028F1D1686F00280DD026
:1020B000DFF84805696F8863686F00F073FE0028D9
:1020C00012D0686F696F896B88470DE0280000F0B7
:1020D00098FE09E0280000F094FE05E0280000F0DA
:1020E00090FE0020C5F88400CCE0286E012840F066
:1020F000A980F00640F1A680F80640F1A3801020E8
:10210000296808622868806840065AD5686F0068A8
:10211000D0F80490484680B2002851D04946B5F81E
:10212000580089B281424BD2A5F85A90686F006876
:102130000068800639D4286850E8000F30F48070B9
:1021400001002A6842E800100028F4D1286808300D
:1021500050E8000F400840000100286810F1080214
:1021600042E800100028F1D12868083050E8000F3C
:1021700030F040000100286810F1080242E8001029
:102180000028F1D12020C5F88000002028662868AA
:1021900050E8000F30F0100001002A6842E80010FB
:1021A0000028F4D1686F00F0D3FD02206866B5F80E
:1021B0005810B5F85A00091A89B2280000F022FE1A
:1021C00060E0B5F85890B5F85A00B9EB0009B5F8D9
:1021D0005A00002835D0484680B2002831D02868FF
:1021E00050E8000F30F4907001002A6842E80010B7
:1021F0000028F4D12868083050E8000F400840005B
:102200000100286810F1080242E800100028F1D10E
:102210002020C5F88000002028660020A8662868D5
:1022200050E8000F30F0100001002A6842E800106A
:102230000028F4D102206866494689B2280000F0DF
:10224000E1FD1FE0F0020AD55FEA482007D55FF400
:10225000801128680162280000F0D5FD12E03006E8
:1022600008D5380606D5E86E002802D02800E96EA9
:10227000884707E0700605D5780603D5280000F0EA
:1022800095FBFFE7BDE8F087008000402DE9F047AF
:1022900007000025DFF82C1838688842FFD0BB689B
:1022A0003869034378690343FA691A433868036855
:1022B000DFF8140803401343386803603868436844
:1022C00033F44053F868034338684360D7F8188004
:1022D0003868884202D0386A50EA0808386882684C
:1022E00032F4306258EA0202386882603A68DFF8F5
:1022F000DC07824216D1DFF8D807006810F003002F
:10230000002805D0022805D006D3032806D007E010
:1023100001269DE002269BE0042699E0082697E02E
:10232000102695E03A68DFF8AC07824217D1DFF853
:10233000A007006810F00C00002806D0042808D080
:10234000082804D00C2806D007E0002680E00226EA
:102350007EE004267CE008267AE0102678E03A68E1
:10236000DFF86408824217D1DFF86407006810F0D4
:102370003000002806D0102808D0202804D03028AB
:1023800006D007E0002663E0022661E004265FE055
:1023900008265DE010265BE03A68DFF830088242EC
:1023A00017D1DFF82C07006810F0C000002806D015
:1023B000402808D0802804D0C02806D007E0002696
:1023C00046E0022644E0042642E0082640E01026CB
:1023D0003EE03A68DFF8F80782421AD1DFF8F006EB
:1023E000006810F44070002809D0B0F5807F0AD052
:1023F000B0F5007F05D0B0F5407F06D007E000269D
:1024000026E0022624E0042622E0082620E010260A
:102410001EE0386888421AD1DFF8B406006810F46C
:102420004060002809D0B0F5806F0AD0B0F5006F89
:1024300005D0B0F5406F06D007E0002608E0022680
:1024400006E0042604E0082602E0102600E010263C
:102450003868884246D13000C0B2002806D0022831
:1024600008D0042809D008280BD00DE001F016F997
:1024700081460DE0DFF85C970AE001F0A2F88146A2
:1024800006E04FF4004903E05FF000090120050079
:10249000B9F1000F00F0A680796803204143894517
:1024A00005D379684FF480504143494502D2012059
:1024B000050097E04FF48072786840080021E2FB45
:1024C00009017A680023FFF755FB0400B4F5407F4B
:1024D00005D3B4F5801F02D23868C46082E00120C1
:1024E00005007FE0F869B0F5004F42D13000C0B27E
:1024F000002808D001280AD002280CD004280DD0CA
:1025000008280FD011E001F0C9F8814611E001F070
:10251000D2F881460DE0DFF8BC960AE001F051F8F0
:10252000814606E04FF4004903E05FF00009012016
:102530000500B9F1000F55D07968490811EB490140
:102540007868B1FBF0F00400102C0FD3B4F5803F95
:102550000CD24FF6F07121402000C0F3420001433D
:102560008A46514689B23868C1603BE001200500C7
:1025700038E03000C0B2002808D001280AD0022874
:102580000CD004280DD008280FD011E001F086F8F7
:10259000814611E001F08FF881460DE0DFF83496B6
:1025A0000AE001F00EF8814606E04FF4004903E02E
:1025B0005FF0000901200500B9F1000F12D0786822
:1025C00019EB50017868B1FBF0F00400102C07D330
:1025D000B4F5803F04D2210089B23868C16001E0BF
:1025E000012005000020B8660020F8662800C0B26F
:1025F000BDE8F087000000002001000493290008D6
:1026000090F82410090707D501684A6832F400429F
:10261000416B0A4301684A6090F82410C90707D546
:1026200001684A6832F40032816A0A4301684A60EC
:1026300090F82410890707D501684A6832F480327F
:10264000C16A0A4301684A6090F82410490707D517
:1026500001684A6832F48022016B0A4301684A60CB
:1026600090F82410C90607D501688A6832F48052B0
:10267000816B0A4301688A6090F82410890607D5A7
:1026800001688A6832F40052C16B0A4301688A60AB
:1026900090F82410490613D501684A6832F4801274
:1026A000016C0A4301684A60016CB1F5801F07D1D3
:1026B00001684A6832F4C002416C0A4301684A600A
:1026C00090F82410090607D501684A6832F4002200
:1026D000816C0A4301684A60704738B504000020E5
:1026E000C4F8840000F02EFB050020680068000795
:1026F0001DD57FF07E4000902B0000225FF400117A
:10270000200000F053F8002811D0206850E8000F96
:1027100030F080000100226842E800100028F4D167
:102720002020E067002084F8780003203DE0206846
:10273000006840072CD57FF07E4000902B000022DF
:102740005FF48001200000F031F8002820D02068DC
:1027500050E8000F30F490700100226842E8001049
:102760000028F4D12068083050E8000F40084000ED
:102770000100206810F1080242E800100028F1D1A1
:102780002020C4F88000002084F8780003200CE0AA
:102790002020E0672020C4F8800000202066002070
:1027A0006066002084F87800002032BD2DE9F041F9
:1027B00005000E0017009846069C2868C069304046
:1027C000B04201D1012100E000213800C0B28142B5
:1027D00035D114F1010FF0D000F0B4FAB0EB0800DD
:1027E000844201D3002C01D1032029E0286800682D
:1027F0004007E2D52868C06900070DD50821286880
:102800000162280000F096F80820C5F88400002036
:1028100085F87800012013E02868C0690005CCD550
:102820004FF4006128680162280000F083F820203E
:10283000C5F88400002085F87800032000E000201F
:10284000BDE8F08130B403005965A3F85820A3F81F
:102850005A20002098669868B0F5805F0BD11869FF
:10286000002804D140F2FF10A3F85C0023E0FF2011
:10287000A3F85C001FE0986800280AD118690028B6
:1028800003D1FF20A3F85C0015E07F20A3F85C00D3
:1028900011E09868B0F1805F0AD11869002803D16F
:1028A0007F20A3F85C0006E03F20A3F85C0002E074
:1028B0000020A3F85C000020C3F884002220C3F8A5
:1028C00080001868083050E8000F50F00100040044
:1028D000186810F1080545E800400028F1D1986813
:1028E000B0F5805F06D11869002803D10FF2E91016
:1028F000986602E00FF2E1009866186900280BD094
:10290000186850E8000F50F4907004001D6845E806
:1029100000400028F4D10AE0186850E8000F50F099
:10292000200004001D6845E800400028F4D1002084
:1029300030BC7047016851E8001F31F490710A0003
:10294000036843E800210029F4D10168083151E807
:10295000001F490849000A00016811F1080343E813
:1029600000210029F1D1016E01290AD1016851E845
:10297000001F31F010010A00036843E8002100291C
:10298000F4D12021C0F88010002101660021816669
:10299000704738B50400A56A0020A5F85A00002049
:1029A000A5F85200280000F02CFA31BD10B5040043
:1029B000206850E8000F30F040000100226842E833
:1029C00000100028F4D12020E0670020E0662000FD
:1029D00000F0E8FE10BD000070B50400B4F85C50D3
:1029E000D4F88000222866D12068808C060015EA81
:1029F0000601606D0170606D401C6065B4F85A009E
:102A0000401EA4F85A00B4F85A00002859D1206892
:102A100050E8000F30F490700100226842E8001086
:102A20000028F4D12068083050E8000F400840002A
:102A30000100206810F1080242E800100028F1D1DE
:102A40002020C4F880000020A06600206066216875
:102A50001C4881420ED02068406800020AD52068D8
:102A600050E8000F30F080600100226842E800105A
:102A70000028F4D1206E012819D10020206620689A
:102A800050E8000F30F010000100226842E800100A
:102A90000028F4D12068C069C00602D51021206842
:102AA0000162B4F85810200000F0ACF909E02000F1
:102AB00000F0FEFE05E02068008B50F00800216861
:102AC000088370BD00800040F369FFEF00380140CB
:102AD0008810024000440040F8B50400B4F85C607F
:102AE000D4F88000222867D12068808C0700606DB0
:102AF000050016EA07002880606D801C6065B4F848
:102B00005A00401EA4F85A00B4F85A00002859D1BF
:102B1000206850E8000F30F490700100226842E80D
:102B200000100028F4D12068083050E8000F400859
:102B300040000100206810F1080242E8001000285F
:102B4000F1D12020C4F880000020A066002060663B
:102B50002168214881420ED02068406800020AD5D1
:102B6000206850E8000F30F080600100226842E8E1
:102B700000100028F4D1206E012819D10020206611
:102B8000206850E8000F30F010000100226842E891
:102B900000100028F4D12068C069C00602D51021B9
:102BA00020680162B4F85810200000F02BF909E009
:102BB000200000F07DFE05E02068008B50F008004A
:102BC00021680883F1BD000000480040004C00402F
:102BD000005000400024F4000080004080B55349BC
:102BE000086850F001000860086810F001000090CB
:102BF00000984F49086850F080500860086810F04D
:102C000080500090009800220021012001F04BF933
:102C1000012001F05DF901BD10B586B0040014215A
:102C2000002201A801F072F921684248814232D1A4
:102C30003F49086850F000700860086810F00070A4
:102C4000009000983C49086850F00200086008684D
:102C500010F00200009000984FF4407001900220A4
:102C6000029000200390032004900920059001A900
:102C7000324801F07FF900220021142001F013F9FD
:102C8000142001F025F900220021162001F00BF993
:102C9000162001F01DF906B010BD10B5A8B0040053
:102CA0001421002201A801F031F98821002206A890
:102CB00001F02CF921682248814235D10820069084
:102CC0000020179006A801F097FA002801D001F023
:102CD0006DF81749086850F400200860086810F47F
:102CE0000020009000981449086850F00100086026
:102CF000086810F001000090009803200190022065
:102D0000029000200390032004900820059001A960
:102D10005FF0904001F02EF900220021342001F0F4
:102D2000C2F8342001F0D4F828B010BD6010024081
:102D300058100240006400404C100240000400485B
:102D4000004C004001480068704700BF00060020AA
:102D50000100002291F82500022806D00420C86353
:102D6000002081F8240001201BE00868036833F08C
:102D70000E0308680360086803685B085B00086866
:102D80000360012091F8443013F01C0398400B6C51
:102D90005860012081F82500002081F824001000EF
:102DA000C0B2704738B50400002594F82500022809
:102DB00004D00420E063012005001FE020680168C2
:102DC00031F00E012068016020680168490849005F
:102DD00020680160012094F8441011F01C01884023
:102DE000216C4860012084F82500002084F824002C
:102DF000A06B002802D02000A16B88472800C0B239
:102E000032BD7047704770472DE9FE4F0500002D19
:102E100001D1012015E3DFF8BC98D9F8004014F087
:102E20000C04DFF84869376817F003072878C006F4
:102E300040F1C880002C03D00C2C7AD1012F78D11E
:102E4000DFF88CA8DAF80000800704D5A86900280C
:102E500001D10120F5E2DAF80000000704D5DAF824
:102E6000001011F0F00105E0DFF80409016809091C
:102E700011F0F001286A81421ED2286A00F030FC6D
:102E8000002801D00120DCE2DAF8000050F0080050
:102E9000CAF80000DAF8001031F0F001286A0143A6
:102EA000CAF80010DFF8CC28106830F47F40E969D8
:102EB00050EA012010601FE0DAF8000050F008002E
:102EC000CAF80000DAF8001031F0F001286A014376
:102ED000CAF80010DFF89C28106830F47F40E969D8
:102EE00050EA01201060002C06D1286A00F0F8FB9F
:102EF000002801D00120A4E200F063FBDFF878187D
:102F0000D9F80020C2F30312895C11F01F01C840F8
:102F1000DFF8C4170860DFF8C407006801F036FD69
:102F20008DF800009DF8000000284BD09DF80000AF
:102F300087E2A86900282ED0DFF89497D9F800001E
:102F400050F00100C9F80000FFF7FCFE8046D9F8F8
:102F50000000800707D4FFF7F5FEB0EB0800032858
:102F6000F5D303206DE2D9F8000050F00800C9F84D
:102F70000000D9F8001031F0F001286A0143C9F8C7
:102F80000010DFF8F027106830F47F40E96950EA5C
:102F90000120106016E0DFF83897D9F800004008EB
:102FA0004000C9F80000FFF7CDFE8046D9F80000C8
:102FB000800707D5FFF7C6FEB0EB08000328F5D35E
:102FC00003203EE22878C00756D5082C03D00C2CED
:102FD0000BD1032F09D1DFF8F806006880034BD529
:102FE0006868002848D101202BE26868B0F5803F6E
:102FF00006D1DFF8DC16086850F48030086018E06D
:103000006868B0F5A02F0AD1DFF8C406016851F452
:1030100080210160016851F48031016009E0DFF82E
:10302000B006016831F480310160016831F480211B
:103030000160686800280FD0FFF784FE8046DFF843
:1030400090060068800317D4FFF77CFEB0EB080001
:103050006528F4D30320F4E1FFF774FE8046DFF81F
:1030600070060068800307D5FFF76CFEB0EB080020
:103070006528F4D30320E4E12878800754D5042C94
:1030800003D00C2C15D1022F13D1DFF844060068B1
:10309000400504D5E868002801D10120D1E1DFF81E
:1030A000D426106830F0F850296950EA01601060A9
:1030B0003AE0E868002820D0DFF81496D9F800003C
:1030C00050F48070C9F80000FFF73CFE8046D9F844
:1030D0000000400507D4FFF735FEB0EB08000328D9
:1030E000F5D30320ADE1DFF88C26106830F0F850FE
:1030F000296950EA0160106016E0DFF8D495D9F82C
:10310000000030F48070C9F80000FFF71BFE804615
:10311000D9F80000400507D5FFF714FEB0EB080012
:103120000328F5D303208CE12878000730D568699F
:10313000002816D0DFF83896D9F8000050F00100CA
:10314000C9F80000FFF7FEFD8046D9F800008007AF
:103150001ED4FFF7F7FDB0EB08000328F5D30320DA
:103160006FE1DFF80C96D9F8000040084000C9F87C
:103170000000FFF7E7FD8046D9F80000800707D57B
:10318000FFF7E0FDB0EB08000328F5D3032058E17A
:103190002878400740F184805FF0000ADFF8DC9572
:1031A000D9F80000C0000DD4D9F8000050F08050CC
:1031B000C9F80000D9F8000010F080500190019883
:1031C00001208246DFF8B8B5DBF80000C00514D452
:1031D000DBF8000050F48070CBF80000FFF7B2FD80
:1031E0008046DBF80000C00507D4FFF7ABFDB0EB6D
:1031F00008000328F5D3032023E1A868012806D19D
:10320000DFF88015086850F00100086017E0A86832
:1032100005280AD1DFF86C05016851F0040101604E
:10322000016851F00101016009E0DFF8580501680B
:10323000490849000160016831F004010160A86893
:10324000002811D0FFF77EFD8046DFF838050068C2
:1032500080071BD4FFF776FDB0EB080041F28931FF
:103260008842F2D30320ECE0FFF76CFD8046DFF8E4
:1032700014050068800709D5FFF764FDB0EB08006E
:1032800041F289318842F2D30320DAE05046C0B2DD
:10329000012805D1D9F8000030F08050C9F80000AD
:1032A000A86A002800F0CC80A86A022840F0A78015
:1032B0003068070017F00301E86A814226D117F051
:1032C0007001286B401EB1EB001F1FD117F4FE41A7
:1032D000686BB1EB002F19D1A86B072801D1002131
:1032E00000E0012117F4003088420FD117F4C0012B
:1032F000E86B4008401EB1EB405F07D117F0C0619A
:10330000286C4008401EB1EB406F59D00C2C55D0B2
:10331000DFF8BC93D9F80000400103D4D9F80000CD
:10332000C00001D501208CE0D9F8000030F0807099
:10333000C9F80000FFF706FD8246D9F800008001B9
:1033400007D5FFF7FFFCB0EB0A000328F5D30320F5
:1033500077E03168DFF830040140E86A0143286B08
:10336000401E51EA0011686B51EA0021E86B4008E9
:10337000401E51EA4051286C4008401E51EA40610D
:10338000A86B000951EA40413160D9F8000050F0C3
:103390008070C9F80000306850F080703060FFF72E
:1033A000D1FC8046D9F80000800149D4FFF7CAFC5F
:1033B000B0EB08000328F5D3032042E0012040E0F1
:1033C000DFF80C93D9F80000800139D4D9F8000057
:1033D00050F08070C9F80000306850F080703060A4
:1033E000FFF7B0FC8046D9F80000800128D4FFF731
:1033F000A9FCB0EB08000328F5D3032021E00C2C36
:103400001CD0DFF8CC92D9F8000030F08070C9F8F9
:103410000000FFF797FC8046D9F80000800107D52F
:10342000FFF790FCB0EB08000328F5D3032008E079
:103430003168DFF858030140316001E0012000E00D
:103440000020BDE8FE8F2DE9F04104000E00002CA5
:1034500001D10120B3E0DFF83873386810F00700BD
:10346000B0420BD23868C008C000304338603868BA
:1034700010F00700B04201D00120A0E020788007C2
:103480000DD5DFF85012086810F0F000A2689042E5
:1034900005D20A6832F0F002A06802430A60207880
:1034A000C00742D56068032806D1DFF8240200680F
:1034B00080011CD4012082E06068022806D1DFF878
:1034C00010020068800312D4012078E060680028B0
:1034D00006D1DFF8FC010068800708D401206EE007
:1034E000DFF8EC010068400501D4012067E0DFF857
:1034F000E481D8F800108908890060680143C8F8A1
:103500000010FFF71FFC0500D8F8001011F00C01A7
:103510006068B1EB800F08D0FFF714FC401B41F24C
:1035200089318842F0D3032049E0207880070DD507
:10353000DFF8A011A268086810F0F000824205D2FE
:103540000A6832F0F002A06802430A60386810F09E
:10355000070086420BD23868C008C000304338608C
:10356000386810F00700B04201D0012027E0207831
:10357000400706D5574A116831F4E061E06801431D
:1035800011602078000707D55248026832F4605273
:10359000216952EAC102026000F013F8DFF8D81185
:1035A0004C4A1268C2F30312895C11F01F01C84033
:1035B000494908604948006801F0E8F9C0B2BDE82F
:1035C000F0812DE9F041002600204249096811F000
:1035D0000C01DFF898C1DCF8007017F00307002930
:1035E00003D00C291AD1012F18D1DFF8E4E0DEF85E
:1035F00000805FEA087806D4DFF874E1DEF800E0C6
:10360000CEF3032E03E0DEF800E0CEF3031E614E9E
:1036100056F82E6000290CD130000AE0042903D1AD
:10362000DFF874E1704604E0082902D1DFF86CE1AC
:1036300070460C292DD1DCF800E01EF0030E734615
:103640009E46BEF1020F03D0BEF1030F03D005E08A
:10365000DFF844E103E0DFF844E100E0B646DCF8DF
:103660000020C2F30212521C1500DCF80020C2F345
:10367000062202FB0EFEBEFBF5F2DCF800C0CCF326
:10368000416C1CF1010C5FEA4C0C6446B2FBF4FC8B
:103690006046BDE8F08110480068704780B5FFF7CC
:1036A000FAFF3F490B4A1268C2F30222895C11F00B
:1036B0001F01C84002BD80B5FFF7EDFF3849054A3C
:1036C0001268C2F3C222895C11F01F01C84002BD1A
:1036D00000100240081002401C01002018010020C8
:1036E0007CB504000025254E3068C00003D501F0EC
:1036F0007DF901000FE0306850F080503060306894
:1037000010F080500090009801F070F901003068CE
:1037100030F080503060B1F5007F09D1812C15D395
:10372000A12C02D30220050010E0012005000DE0CD
:10373000812C02D30320050008E0802C02D1022056
:10374000050003E0702C01D101200500104A10682B
:10375000C008C00028431060106810F00700A8429D
:1037600001D0012000E0002076BD00000C100240D6
:1037700094100240041002403055000858100240D6
:1037800000700040901002408C809DF9FCFFEEFE1E
:1037900000200240305400080024F40000127A0097
:1037A00088550008704700002DE9F04704000D001F
:1037B0005FF0000AFFF7C6FA0300DFF88C65DFF858
:1037C0008C25DAF1640106EB0A0001F085F98146E7
:1037D00019EB0A092368DFF87825D9F1640106EBB3
:1037E000090001F079F9070017EB09075FF00008FD
:1037F000206980450ED215F80830DFF85825D7F13A
:10380000640106EB070001F067F9C019070018F121
:103810000108EDE72069002808D096A2D7F16401DD
:1038200006EB070001F058F9C01907003000FDF75A
:1038300087FC020092B23100DFF81C0501F0B1F9FB
:10384000BDE8F08770B50600DFF81045DFF81055C9
:103850002B0022000021300001F080FB002808D15D
:1038600020215FF0904000F08FFC29002000FFF73E
:103870009BFF70BD70B50600DFF8E044DFF8E05450
:103880002B0022000121300001F068FB002808D144
:1038900020215FF0904000F077FC29002000FFF726
:1038A00083FF70BD10B50400200001F042FD10BD83
:1038B0002DE9F84F83460024DFF8A854DFF888A4E8
:1038C000DFF8A464DFF8A4743088395C28880AF82B
:1038D00000102888401C28803088401C308000213F
:1038E000308839543088384410F8010C0D283BD109
:1038F0003878432814D0562802D0762808D016E00D
:10390000DFF86C241421380001F0E6F8040014E01C
:10391000DFF860241421380001F0DEF804000CE028
:103920007EA21421380001F0D7F8040005E07CA243
:103930001421380001F0D0F80400220092B23900BE
:10394000DFF8140401F02DF9A0461FFA88F8B946F3
:1039500028888244424649465046FDF739FC28886B
:1039600020182880002030800122308807EB0001D9
:10397000DFF80404FEF7D0FABDE8F18F10B50400BB
:10398000200080B2B0F5005F05D120215FF09040AB
:1039900000F0FAFB00E000BFDFF8E0030188491CFB
:1039A0000A2902D30021018002E00188491C01801C
:1039B00010BDF0B58DB04FF6FF7501F0BDFC00F005
:1039C0005BF8E54E4FF44872DFF8B413300001F0B5
:1039D000A5F800F054F900F0A5F800F032F9DFF88E
:1039E000A4034FF45E710160002141600021C160B9
:1039F0000021816008210161002101750020010082
:103A0000C9B2082907DA10F10A03DF4A0100C9B276
:103A10005354401CF3E7D84F0122D4493800FEF735
:103A20007BFA0021D0480180300001F0B1F8040099
:103A3000200080B2002811D032226946300001F007
:103A4000CDF80400200080B2002807D064232200B3
:103A500092B269463800FEF7F2F9E9E7C74A280052
:103A6000118880B28842DFD01088050000F05AF833
:103A7000DAE700000D0A000010B596B044210022DC
:103A800005AC200000F042FA142100226C46200010
:103A900000F03CFA4FF4007000F0AEFF002801D0B7
:103AA00000F084F901F05AFCB849086830F01800B9
:103AB0000860142005900120079001200B90002041
:103AC0000C9060200D9002200F900120109001209A
:103AD00011902820129007201390022014900220A9
:103AE000159005A8FFF790F9002801D000F05EF9C5
:103AF0000F200090032001900020029000200390EE
:103B00000020049004216846FFF79DFC002801D0A6
:103B100000F04CF900F0B8FD16B010BD070D000024
:103B20000D0000002DE9F84197B0994F380001F0E1
:103B3000E3F9DFF86082C7F800800A20786000208F
:103B4000B8600020F8605FF4402038615FF48010B6
:103B5000786100203876012078760020B876002041
:103B6000F8760020387700207877380001F05CF88C
:103B7000002801D000F01AF9804C874D1C262088BF
:103B80007043284400697860208870432844406965
:103B9000386120887043284480697861C7F80080C4
:103BA0000020B8600020F860002038760120787688
:103BB0000020B8760020F87600203877002078774B
:103BC000380001F031F8002801D000F0EFF80020B3
:103BD0000590002006900120079000200090002012
:103BE000019000200290002003900020049001200A
:103BF00008906946380001F0CDF8002801D000F0A7
:103C0000D5F85FF00008208806FB00F605EB0603F8
:103C1000624A32210AA800F05FFF0AA8FDF790FA75
:103C2000020092B20AA94C4800F0BBFF380001F034
:103C300035F948F60241380001F048FA18B0BDE8FD
:103C4000F08180B54C48564901605FF4E131416034
:103C5000002181600021C160002101610C214161CE
:103C6000002181610021C1610021016200214162C6
:103C7000FEF7A8F8002801D000F098F801BD10B5B3
:103C800086B0142100226C46200000F03FF9454820
:103C9000016851F004010160016811F0040105910F
:103CA0000599016851F080010160016811F08001FF
:103CB00005910599016851F001010160016811F059
:103CC000010105910599016851F002010160006848
:103CD00010F0020005900598002220215FF090402E
:103CE00000F046FA4FF4005000905FF40410019089
:103CF0000020029069462C4800F03CF90C2000900E
:103D000002200190002002900320039007200490DD
:103D100069465FF0904000F02DF9202000900120CE
:103D20000190002002900020039069465FF09040CF
:103D300000F020F900220021282000F0B4F828200B
:103D400000F0C6F806B010BD04050020605500085C
:103D50006855000870550008C40500209005002033
:103D6000F8050020080600200A060020DC050020D7
:103D700078550008805500087C0400205801002078
:103D80005C010020AC050020F005002090100240EE
:103D90006805002000640040000000202055000855
:103DA000004C00404C1002400008004870470000E2
:103DB00010B410F00702DFF834311C684FF6FF0131
:103DC0000C4054EA0224DFF828110C431C6010BC9C
:103DD0007047DFF818010068C0F302207047000048
:103DE000010049B2002909D4012210F01F018A40C4
:103DF000404B010049B2490943F82120704710B4F3
:103E0000020052B2002A05D40C013B4B020052B210
:103E10009C5408E00A01394C03005BB213F00F0315
:103E2000234403F8042C10BC704770B4030013F053
:103E30000704D4F10700052801D3042001E0D4F1E0
:103E40000700251D072D01D2002600E0E61E0125F2
:103E500015FA00F0401E0140B14015FA06F6761E34
:103E600032401143080070BC704710B50400601E5A
:103E7000B0F1807F01D301200EE0611E2048016077
:103E80000F215FF0FF30FFF7BAFF00211D480160EE
:103E900007211D480160002010BD10B5040020005E
:103EA000FFF786FF10BD2DE9F04180460C0015009C
:103EB0000026FFF78EFF07002A0021003800FFF7D9
:103EC000B4FF0100404640B2FFF799FFBDE8F08122
:103ED00010B50400200040B2FFF782FF10BD10B5FE
:103EE00004002000FFF7C1FF10BD00000CED00E052
:103EF0000000FA0500E100E000E400E018ED00E059
:103F000014E000E018E000E010E000E062F30F22AF
:103F100062F31F42401810F0030308D0C91A1FD3E0
:103F2000DB0748BF00F8012D28BF20F8022D130041
:103F300030B414461546103928BF20E93C00FAD8A1
:103F4000490728BF20E90C0048BF40F8042D89002C
:103F500028BF20F8022D48BF00F8012D30BC704763
:103F6000C91818BF00F8012DCB0728BF00F8012D94
:103F700070470000F8B4030000250868E8400028F6
:103F800000F0F48001260F6816FA05F007403A00A9
:103F9000002A00F0E980087910F00300012804D01D
:103FA000087910F00300022821D19F685FF0030C0C
:103FB0002800C0B240001CFA00FC37EA0C07D1F818
:103FC0000CC02800C0B240001CFA00FC5CEA0707E5
:103FD0009F60D3F804C016FA05F03CEA000C48686C
:103FE000C0F30010A84050EA0C0C64465C600879ED
:103FF00010F00300032809D1D86AAE40B0434E68E0
:10400000C6F3C006AE4030430400DC62087910F00D
:10401000030003280ED0DE6803272800C0B240004A
:104020008740BE438F682800C0B2400087403E43AF
:104030003400DC60087910F00300022818D1280051
:10404000C00803EB8000066A0F2715F00700C0B216
:1040500080008740BE430F6915F00700C0B28000A2
:1040600087403E4334002800C00803EB8000046210
:104070001E6803272800C0B240008740BE430F7966
:1040800017F003072800C0B2400087403E433400C9
:104090001C60486810F4403F66D04A48066856F0F5
:1040A00001060660006810F0010000900098464E7E
:1040B0002800800856F820705FF00F0C15F0030000
:1040C000C0B280001CFA00FC37EA0C07B3F1904F35
:1040D00001D100241EE03D48834201D1012419E0B2
:1040E0003B48834201D1022414E03A48834201D183
:1040F00003240FE03848834201D104240AE0374802
:10410000834201D1052405E03548834201D10624CC
:1041100000E0072415F00300C0B28000844027436C
:104120002800800846F820702E4C206890434E6886
:10413000F60200D5104320602B4E346894434F683C
:10414000BF0200D5144334602848066896434F6880
:10415000BF0300D5164306602548046894434F68A2
:10416000FF0300D5144304606D1C06E7F1BC7047E3
:104170001300DBB2002B03D00B009BB2836102E083
:104180000B009BB28362704710B444690A0092B27C
:1041900022400B009BB2A34353EA0243836110BC4D
:1041A000704710B5040013480268210089B20A4222
:1041B00006D0210089B20160200080B2FFF7DEFB4B
:1041C00010BD0000601002400800014000040048DB
:1041D00000080048000C0048001000480014004887
:1041E00000180048080401400C0401400404014088
:1041F00000040140140401402DE9F84F82460026D6
:104200000027DAF80000000534D5DAF86400002849
:1042100010D0B0F5800F14D0B0F5000F03D0B0F57A
:10422000400F15D015E0DFF84C14086850F48030CA
:10423000086010E000211AF1040000F02CFA0600DA
:1042400009E000211AF1200000F0E9FA060002E07E
:1042500001E0012006003000C0B2002809D1DFF8DB
:1042600018140A6832F44002DAF8640002430A6063
:1042700000E03700DAF80000C00434D5DAF868004E
:10428000002810D0B0F1807F14D0B0F1007F03D0AF
:10429000B0F1407F15D015E0DFF8D813086850F46E
:1042A0008030086010E000211AF1040000F0F3F9FA
:1042B000060009E000211AF1200000F0B0FA060023
:1042C00002E001E0012006003000C0B2002809D160
:1042D000DFF8A4130A6832F04072DAF8680002438B
:1042E0000A6000E03700DAF8000080037CD55FF058
:1042F0000008DFF88893D9F80000C0000DD4D9F881
:10430000000050F08050C9F80000D9F8000010F00B
:1043100080500090009801208046DFF864B3DBF8FD
:10432000000050F48070CBF80000FEF70BFD050094
:10433000DBF80000C00506D4FEF704FD401B03288F
:10434000F6D3032006003000C0B2002841D1DFF8C8
:1043500034B3DBF8000010F440700400002C16D0D9
:10436000DAF88400844212D0DBF8000030F44070A8
:104370000400DBF8000050F48030CBF80000DBF8DC
:10438000000030F48030CBF80000CBF80040E007AC
:104390000FD5FEF7D7FC0500DBF80000800708D436
:1043A000FEF7D0FC401B41F289318842F4D3032050
:1043B00006003000C0B2002809D1DBF8001031F44B
:1043C0004071DAF884000143CBF8001002E03700B6
:1043D00000E037004046C0B2012805D1D9F80000FE
:1043E00030F08050C9F800009AF80000C00708D5E6
:1043F000DFF884120A6892089200DAF83800024363
:104400000A609AF80000800708D5DFF86C2211686E
:1044100031F00C01DAF83C00014311609AF8000019
:10442000400708D5DFF85022116831F03001DAF882
:104430004000014311609AF80000000708D5DFF83A
:104440003822116831F0C001DAF8440001431160EC
:104450009AF80000C00607D5874A116831F4407108
:10446000DAF84800014311609AF80000800607D589
:10447000814A116831F44061DAF84C00014311605F
:10448000DAF80000800507D57B4A116831F4402135
:10449000DAF85C0001431160DAF80000400507D546
:1044A000754A116831F44011DAF860000143116077
:1044B0009AF80000400607D56F4A116831F4405160
:1044C000DAF85000014311609AF80000000607D5A1
:1044D000694A116831F44041DAF85400014311602F
:1044E000DAF80000C00507D5634A116831F440319D
:1044F000DAF8580001431160DAF80000800422D590
:104500005D4A116831F04061DAF86C0001431160D6
:10451000DAF86C00B0F1006F05D15648016851F42B
:10452000801101600FE0DAF86C00B0F1806F0AD101
:1045300001211AF1040000F0AEF806003000C0B20C
:10454000002800D03700DAF80000000322D54A49DD
:104550000A6832F04062DAF8700002430A60DAF862
:104560007000B0F1006F05D14249086850F4801026
:1045700008600FE0DAF87000B0F1806F0AD1012115
:104580001AF1040000F087F806003000C0B20028DD
:1045900000D03700DAF80000400322D5364A11680F
:1045A00031F04061DAF8740001431160DAF8740008
:1045B000B0F1006F05D12F49086850F480100860F1
:1045C0000FE0DAF87400B0F1806F0AD101211AF11E
:1045D000040000F060F806003000C0B2002800D0EF
:1045E0003700DAF80000400428D5234A116831F07A
:1045F0004051DAF8780001431160DAF87800B0F140
:10460000805F0BD102211AF1040000F044F806008B
:104610003000C0B2002811D037000FE0DAF878007F
:10462000B0F1005F0AD102211AF1200000F0F7F882
:1046300006003000C0B2002800D03700DAF80000D1
:10464000000407D50C4A116831F08041DAF87C008B
:1046500001431160DAF80000C00307D5064A11686B
:1046600021F00041DAF88000014311603800C0B247
:10467000BDE8F28F0C100240881002405810024032
:104680000070004090100240DFF8E812086850F017
:104690000400086070472DE9F04107000C00002677
:1046A000DFF8CC12086810F0030F12D00A6812F07D
:1046B00003023868824209D13868002806D00868A9
:1046C000C0F30211491C7868814235D001200600F0
:1046D00032E03868012804D01ED3032811D008D353
:1046E0001AE0DFF890020068800701D4012006007C
:1046F00014E0DFF880020068400501D401200600C4
:104700000CE0DFF870020268920304D400684003F2
:1047100001D40120060001E0012006003000C0B2F3
:10472000002809D10A6832F07302386802437868B9
:10473000401E52EA00120A603000C0B2002869D15F
:10474000DFF83082D8F8000030F08060C8F8000050
:10475000FEF7F8FA0500D8F80000000106D5FEF7CC
:10476000F1FA401B0328F6D3032006003000C0B244
:1047700000284FD1002C0ED1DFF8FC110A68DFF8B9
:10478000FC010240B86852EA0022F868000952EAC7
:1047900040420A6020E0012C0FD1DFF8DC110A68EA
:1047A000DFF8DC010240B86852EA002238694008AC
:1047B000401E52EA40520A600EE0DFF8BC110A685F
:1047C000DFF8C0010240B86852EA00227869400868
:1047D000401E52EA40620A60D8F8000050F0806043
:1047E000C8F80000FEF7AEFA0500D8F80000000196
:1047F00006D4FEF7A7FA401B0328F6D303200600D1
:104800003000C0B2002805D1DFF86C211168B8690A
:10481000014311603000C0B2BDE8F08100002DE915
:10482000F04107000C0000265149086810F0030F02
:1048300012D00A6812F003023868824209D138683F
:10484000002806D00868C0F30211491C786881422C
:1048500032D0012006002FE03868012804D01BD395
:1048600003280FD007D317E042480068800701D41F
:104870000120060012E03F480068400501D40120F5
:1048800006000BE03B480268920304D40068400332
:1048900001D40120060001E0012006003000C0B272
:1048A000002809D10A6832F0730238680243786838
:1048B000401E52EA00120A603000C0B2002852D1F5
:1048C000DFF8B080D8F8000030F08050C8F8000061
:1048D000FEF738FA0500D8F80000800006D5FEF78C
:1048E00031FA401B0328F6D3032006003000C0B283
:1048F000002838D1002C0CD123490A681F480240F7
:10490000B86852EA0022F868000952EA40420A6098
:104910000CE01D490A681B480240B86852EA0022B0
:1049200038694008401E52EA40620A60D8F8000028
:1049300050F08050C8F80000FEF704FA0500D8F8DF
:104940000000800006D4FEF7FDF9401B0328F6D3D3
:10495000032006003000C0B2002804D10A4A1168C2
:104960007869014311603000C0B2BDE8F0810000F9
:104970000C1002400010024010100240FF80FDFFAA
:10498000FF809FFFFF80FFF91410024038B504003C
:1049900000251349087800281DD04FF47A70097853
:1049A000B0FBF1F00F490968B1FBF0F0FFF797FA9F
:1049B00000280DD1102C08D2002221005FF0FF301A
:1049C000FFF771FA0848046007E00120050004E0E1
:1049D0000120050001E0012005002800C0B232BD21
:1049E0005A0100201C01002018010020DFF8D0002F
:1049F000006810F4C060704710B40200B2F5007F88
:104A000025D1DFF8BC00036813F4C063B3F5007F61
:104A10002AD00124036864F34A230360DFF8A4006A
:104A2000036832204343DFF8A000B3FBF0F0401CE2
:104A30000100DFF8980003685B0503D5002901D069
:104A4000491EF6E7006840050ED503200DE0DFF8AB
:104A50007000036813F4C063B3F5806F04D00224C0
:104A6000036864F34A230360002010BC704710B54C
:104A7000174C2068C00304D500F078FC5FF4803048
:104A80002060144C2068000703D500F070FC08205B
:104A900020602068C00603D500F06AFC102020606A
:104AA0002068800603D500F064FC20202060206888
:104AB000400603D500F05EFC4020206010BD0000E1
:104AC000007000401C01002040420F0014700040A4
:104AD000140401403404014008B438B585B009AD70
:104AE00000240495039400290EBF01940190491EEF
:104AF0000291009404AB01A9074878441A30FBF7EF
:104B000046FB019901B10C70002858BF039806B00C
:104B100030BC5DF808FB00BFCFC5FFFF0300002BD2
:104B200002D15FF0FF3010E0002901D0002A02D14D
:104B30005FF0FF3009E05A61002018611960996048
:104B4000D96001EB02005860002070478268117044
:104B50008268521C82600269521C0261836842684A
:104B6000934201D3026882607047C26812780A706B
:104B7000C268521CC2600269521E0261C368426868
:104B8000934201D30268C260704702690A8070478D
:104B90001CB5040069462000FFF7F7FFBDF80000D0
:104BA00016BD70B504000D001600002C02D15FF098
:104BB000FF3012E021696069814202D37FF0010079
:104BC0000BE03000461E80B2002805D02978200076
:104BD000FFF7BCFF6D1CF4E7002070BDF8B50400C2
:104BE0000D0017000026002C02D15FF0FF301AE004
:104BF0002069002801D1002015E0380080B200288B
:104C000001D100200FE029002000FFF7AEFF6D1C4E
:104C1000761C2069002804D07F1E380080B200284E
:104C2000F1D1B6B23000F2BD70B50400002C01D154
:104C30000120AEE094F82000002802D12000FDF70A
:104C4000EBFF2068016851F0010120680160FEF768
:104C500079F8060020684068C0070DD4FEF772F8A6
:104C6000801B0B28F6D3606A50F400306062052088
:104C700084F8200001208CE02068016831F00201F6
:104C800020680160FEF75EF8050020684068800734
:104C90000DD5FEF757F8401B0B28F6D3606A50F489
:104CA00000306062052084F82000012071E0207E41
:104CB000012806D12068016851F080012068016058
:104CC00005E02068016831F0800120680160607EA5
:104CD000012806D12068016851F040012068016078
:104CE00005E02068016831F0400120680160A07E85
:104CF000012806D12068016851F020012068016078
:104D000005E02068016831F0200120680160E07E44
:104D1000012806D12068016831F010012068016087
:104D200005E02068016851F0100120680160207FD3
:104D3000012806D12068016851F00801206801604F
:104D400005E02068016831F0080120680160607F9B
:104D5000012806D12068016851F004012068016033
:104D600005E02068006830F0040021680860A16850
:104D7000E068014320690143606901436068401EA7
:104D800001432068C16100206062012084F8200096
:104D9000002070BDF0B40200136892F8204020009B
:104DA000C0B2012803D02000C0B202286FD1D3F8CE
:104DB000000250F00100C3F800020125087D10F048
:104DC0001F008540D3F81C02A843C3F81C02C86921
:104DD000002816D1D3F80C02A843C3F80C02486986
:104DE00003EBC000CF684E68C6EA0746C0F84062D1
:104DF000486903EBC0008F680E68C6EA0746C0F832
:104E00004462C869012816D1D3F80C022843C3F8BC
:104E10000C02486903EBC0000E684F68C7EA0646FB
:104E2000C0F84062486903EBC0008F68CE68C6EAEC
:104E30000746C0F844628869002805D1D3F8040207
:104E4000A843C3F8040204E0D3F804022843C3F8DB
:104E500004020869002805D1D3F81402A843C3F856
:104E6000140204E0D3F814022843C3F81402086AB9
:104E7000012804D1D3F81C022843C3F81C02D3F83C
:104E8000000240084000C3F80002002004E0506A1D
:104E900050F4802050620120F0BC704738B5040007
:104EA00094F82000012821D1022084F820002068F5
:104EB00001684908490020680160FDF743FF0500CB
:104EC00020684068C0070DD5FDF73CFF401B0B284C
:104ED000F6D3606A50F400306062052084F8200048
:104EE000012008E000206062002004E0606A50F4C5
:104EF00000206062012032BD38B5040094F8200023
:104F0000022825D12068016851F001012068016064
:104F1000FDF718FF050020684068C0070DD4FDF7B5
:104F200011FF401B0B28F6D3606A50F4003060621A
:104F3000052084F8200001200FE02068016831F08E
:104F4000020120680160012084F82000002004E0B4
:104F5000606A50F480106062012032BD70B40400B9
:104F600094F820502800C0B2012804D02800C0B214
:104F7000022840F0A48000290AD12068C06810F0FF
:104F8000030F10D1606A50F40010606201209BE0B2
:104F90002068006910F0030F05D1606A50F400101A
:104FA0006062012090E0266808013044D0F8B0012A
:104FB00010F0040090609068002807D1266808016E
:104FC0003044D0F8B001400D106006E026680801BA
:104FD0003044D0F8B001C008506026680801304461
:104FE000D0F8B00110F00200D0602668080130440B
:104FF000D0F8B40110F00F00082802D30820106187
:1050000007E0266808013044D0F8B40110F00F0022
:105010001061266808013044D0F8B401C0F30720BD
:105020009061266808013044D0F8B401000C50614A
:10503000266808013044D0F8B801187026680801C5
:105040003044D0F8B801000A58702668080130448E
:10505000D0F8B801000C9870266808013044D0F8E8
:10506000B801000ED870266808013044D0F8BC01A1
:105070001871266808013044D0F8BC01000A587144
:10508000266808013044D0F8BC01000C98712668ED
:1050900008013044D0F8BC01000ED871002906D1B7
:1050A0002068C66856F020062068C66005E02068C3
:1050B000066956F0200620680661002004E0606A58
:1050C00050F480206062012070BC704710B4020070
:1050D00092F820301800C0B2012803D01800C0B2E6
:1050E000022806D1106844690C431068446100200E
:1050F00004E0506A50F480205062012010BC7047D8
:105100002DE9F84F83460024DBF800004569DBF801
:1051100000004668DBF800008768DBF80000D0F884
:105120000C80DBF80000D0F81090DBF80000D0F81D
:1051300018A0E8074CD5F80716D50121DBF80000C8
:105140008160B80703D5584600F015F90CE07807E0
:1051500002D554F4006407E0380702D554F48054B3
:1051600002E0584600F008F9F80517D54FF48071B1
:10517000DBF800008160B80503D5584600F0FDF863
:105180000CE0780502D554F4005407E0380502D548
:1051900054F4804402E0584600F0F0F8F80317D5C4
:1051A0005FF48031DBF800008160B80303D5584616
:1051B00000F0E5F80CE0780302D554F4004407E071
:1051C000380302D554F4803402E0584600F0D8F891
:1051D000280708D55FEAC86005D554F4007410218B
:1051E000DBF80000C160680709D55FEA087006D5E2
:1051F0000821DBF80000C160584600F0C2F8A8079B
:1052000008D5DBF80000C06810F0030F02D0584644
:10521000FEF718FB680608D55FEAC96005D554F4A7
:1052200080641021DBF800000161A80609D55FEA5F
:10523000097006D50820DBF800100861584600F018
:10524000A1F8E80608D5DBF80000006910F0030FAC
:1052500002D05846FEF70EFBA80308D5F00606D587
:105260001021DBF800004160584600F08CF8E8039C
:1052700008D5300706D50820DBF8001048605846EE
:1052800000F082F8280448D5700742D5E80504D517
:105290005046C00701D554F00104A80504D55FEAC3
:1052A0008A7001D554F00204680504D55FEA4A709B
:1052B00001D554F0040428052BD51AF0700F28D01E
:1052C0001AF0700010280AD020280BD030280CD0FB
:1052D00040280DD050280ED060280FD011E054F097
:1052E00008040EE054F010040BE054F0200408E031
:1052F00054F0400405E054F0800402E054F480745B
:10530000FFE7DBF80000816931F07001DBF8000095
:1053100081610421DBF800004160002C07D0DBF83C
:1053200024002043CBF824005846FEF7BBFABDE822
:10533000F18F406A7047000010B500240320FEF78B
:10534000ACFD0020FFF722FB002802D00120040062
:1053500001E0FDF743FC2000C0B210BD024908681F
:1053600050F48070086070470070004070477047CC
:105370007047704770477047704770477047704775
:10538000704770477047704770470000FEE7FEE7C0
:10539000FEE7FEE7FEE770477047704780B500F014
:1053A0001FF801BD80B5FFF762FB01BD80B50A485B
:1053B000FFF7A6FE01BD80B50748FFF7A1FE01BDBE
:1053C00080B54FF40050FEF7ECFE01BD80B50348F8
:1053D000FCF7D1FD01BD0000680500207C04002021
:1053E00003480168034A127889180160704700BFBA
:1053F000000600205A01002030B4002412E050F8CA
:10540000043BDA0744BF4B445B1E091F042943F8E1
:10541000044BFAD21A468D0744BF1C80921CCB075E
:1054200048BF147050F8041B0029E8D130BC704705
:10543000A0860100400D0300801A060000350C0014
:1054400040420F0080841E0000093D0000127A00D7
:105450000024F40000366E010048E801006CDC0214
:1054600010B5034A7A440832024C7C44A41D03E080
:10547000400000005C00000004E01168101D1144B1
:1054800088470246A242F8D110BD00004EF688516E
:10549000CEF20001086840F470000860BFF34F8F3F
:1054A000BFF36F8F4FF00170E1EE100A70470000FC
:1054B00049FFFFFFB00400005C0100200000000075
:1054C00093BBFFFFFC010000E8000000000000208B
:1054D00000F00DF8002801D0FFF7C2FFAFF3008005
:1054E0000020AFF30080FEF764FA00F002F801201C
:1054F000704700F001B8000007463846FCF758FC3A
:10550000FBE700000548014603B4684680F30988BC
:10551000AFF30080FFF7BAFFFFF7DAFFA5EDF5FE66
:105520005365742073706565642025730D0A00004F
:105530000000000000000000010203040607080943
:1055400001488047014800475155000805550008AB
:105550000249086850F470000860704788ED00E068
:10556000253038643A200000307825783A20000051
:10557000253032582000000056313031300D000007
:1055800076313031300D00000000000001020304CC
:10559000FFF7FEBFFFF7FEBFFFF7FEBFFFF7FEBF3F
:1055A000FFF7FEBFFFF7FEBFFFF7FEBFFFF7FEBF2F
:1055B000FFF7FEBFFFF7FEBFFFF7FEBFFFF7FEBF1F
:1055C000FFF7FEBFFFF7FEBFFFF7FEBFFFF7FEBF0F
:1055D000FFF7FEBFFFF7FEBFFFF7FEBFFFF7FEBFFF
:1055E000FFF7FEBFFFF7FEBFFFF7FEBFFFF7FEBFEF
:1055F000FFF7FEBFFFF7FEBFFFF7FEBFFFF7FEBFDF
:10560000FFF7FEBFFFF7FEBFFFF7FEBFFFF7FEBFCE
:10561000FFF7FEBFFFF7FEBFFFF7FEBFFFF7FEBFBE
:10562000FFF7FEBFFFF7FEBFFFF7FEBFFFF7FEBFAE
:10563000FFF7FEBFFFF7FEBFFFF7FEBFFFF7FEBF9E
:10564000FFF7FEBFFFF7FEBFFFF7FEBFFFF7FEBF8E
:10565000FFF7FEBFFFF7FEBFFFF7FEBFFFF7FEBF7E
:10566000FFF7FEBFFFF7FEBFFFF7FEBFFFF7FEBF6E
:10567000FFF7FEBFFFF7FEBFFFF7FEBFFFF7FEBF5E
:10568000FFF7FEBFFFF7FEBFFFF7FEBFFFF7FEBF4E
:10569000FFF7FEBFFFF7FEBFFFF7FEBFFFF7FEBF3E
:1056A000FFF7FEBFFFF7FEBFFFF7FEBFFFF7FEBF2E
:1056B000FFF7FEBFFFF7FEBFFFF7FEBFFFF7FEBF1E
:1056C000500731306B6269742F73000123F4010AB3
:1056D000120C05D0011000321C32FA09411CD235DF
:1056E0001C92641C900338332E33331F923C1CB041
:1056F000013132353992281CD23255B21470C11C96
:10570000A20A70F1041C320706B3316DA7A300058D
:105710008CC2301D31FB5122221006F00507093DD5
:1057200000761200080452FF01E376111400030012
:04573000000600016E
:040000050800550595
:00000001FF
